{
  "contracts/TykheLuckyOracle.sol": {
    "TykheLuckyOracle": {
      "abi": [
        {
          "inputs": [
            {
              "internalType": "address",
              "name": "_vrfCoordinator",
              "type": "address"
            },
            {
              "internalType": "address",
              "name": "_link_token_contract",
              "type": "address"
            },
            {
              "internalType": "bytes32",
              "name": "_keyHash",
              "type": "bytes32"
            }
          ],
          "stateMutability": "nonpayable",
          "type": "constructor"
        },
        {
          "inputs": [
            {
              "internalType": "address",
              "name": "have",
              "type": "address"
            },
            {
              "internalType": "address",
              "name": "want",
              "type": "address"
            }
          ],
          "name": "OnlyCoordinatorCanFulfill",
          "type": "error"
        },
        {
          "inputs": [
            {
              "internalType": "uint256",
              "name": "requestId",
              "type": "uint256"
            },
            {
              "internalType": "uint256[]",
              "name": "randomWords",
              "type": "uint256[]"
            }
          ],
          "name": "rawFulfillRandomWords",
          "outputs": [],
          "stateMutability": "nonpayable",
          "type": "function"
        },
        {
          "inputs": [],
          "name": "requestRandomWords",
          "outputs": [],
          "stateMutability": "nonpayable",
          "type": "function"
        },
        {
          "inputs": [
            {
              "internalType": "uint256",
              "name": "",
              "type": "uint256"
            }
          ],
          "name": "s_randomWords",
          "outputs": [
            {
              "internalType": "uint256",
              "name": "",
              "type": "uint256"
            }
          ],
          "stateMutability": "view",
          "type": "function"
        },
        {
          "inputs": [],
          "name": "s_requestId",
          "outputs": [
            {
              "internalType": "uint256",
              "name": "",
              "type": "uint256"
            }
          ],
          "stateMutability": "view",
          "type": "function"
        },
        {
          "inputs": [
            {
              "internalType": "uint64",
              "name": "subscriptionId",
              "type": "uint64"
            }
          ],
          "name": "setSubscriptionId",
          "outputs": [],
          "stateMutability": "nonpayable",
          "type": "function"
        }
      ],
      "evm": {
        "bytecode": {
          "linkReferences": {},
          "object": "60a0604052600180546001600160a01b031916736a2aad07396b36fe02a22b33cf443582f682c82f1790557fd4bb89654db74673a187bd804519e65e3f71a52bc55f11da7601a13dcf50531460035560048054660a0003000186a06001600160501b031990911617905534801561007557600080fd5b506040516105d63803806105d68339810160408190526100949161010c565b600180546001600160a01b03808216608081905260078054336001600160a01b03199182161790915560008054821690921790915591821695811695909517909155600280549091169290931691909117909155600355610148565b80516001600160a01b038116811461010757600080fd5b919050565b60008060006060848603121561012157600080fd5b61012a846100f0565b9250610138602085016100f0565b9150604084015190509250925092565b60805161046d6101696000396000818160c50152610107015261046d6000f3fe608060405234801561001057600080fd5b50600436106100575760003560e01c80631fe543e31461005c578063e0c8628914610071578063e89e106a14610079578063ea7b4f7714610094578063f6eaffc8146100a7575b600080fd5b61006f61006a36600461030c565b6100ba565b005b61006f610146565b61008260065481565b60405190815260200160405180910390f35b61006f6100a23660046103d5565b61021a565b6100826100b5366004610405565b61025d565b336001600160a01b037f000000000000000000000000000000000000000000000000000000000000000016146101385760405163073e64fd60e21b81523360048201526001600160a01b037f000000000000000000000000000000000000000000000000000000000000000016602482015260440160405180910390fd5b610142828261027e565b5050565b6007546001600160a01b0316331461015d57600080fd5b600054600354600480546040516305d3b1d360e41b815291820192909252600160a01b83046001600160401b03166024820152600160201b820461ffff16604482015263ffffffff8083166064830152600160301b90920490911660848201526001600160a01b0390911690635d3b1d309060a4016020604051808303816000875af11580156101f1573d6000803e3d6000fd5b505050506040513d601f19601f82011682018060405250810190610215919061041e565b600655565b6007546001600160a01b0316331461023157600080fd5b600080546001600160401b03909216600160a01b02600160a01b600160e01b0319909216919091179055565b6005818154811061026d57600080fd5b600091825260209091200154905081565b8051610291906005906020840190610296565b505050565b8280548282559060005260206000209081019282156102d1579160200282015b828111156102d15782518255916020019190600101906102b6565b506102dd9291506102e1565b5090565b5b808211156102dd57600081556001016102e2565b634e487b7160e01b600052604160045260246000fd5b6000806040838503121561031f57600080fd5b823591506020808401356001600160401b038082111561033e57600080fd5b818601915086601f83011261035257600080fd5b813581811115610364576103646102f6565b8060051b604051601f19603f83011681018181108582111715610389576103896102f6565b6040529182528482019250838101850191898311156103a757600080fd5b938501935b828510156103c5578435845293850193928501926103ac565b8096505050505050509250929050565b6000602082840312156103e757600080fd5b81356001600160401b03811681146103fe57600080fd5b9392505050565b60006020828403121561041757600080fd5b5035919050565b60006020828403121561043057600080fd5b505191905056fea2646970667358221220e34f2ad1730eb8264eafd167b004ea21f69a127c480f6a84696029225cc0d74564736f6c634300080f0033",
          "opcodes": "PUSH1 0xA0 PUSH1 0x40 MSTORE PUSH1 0x1 DUP1 SLOAD PUSH1 0x1 PUSH1 0x1 PUSH1 0xA0 SHL SUB NOT AND PUSH20 0x6A2AAD07396B36FE02A22B33CF443582F682C82F OR SWAP1 SSTORE PUSH32 0xD4BB89654DB74673A187BD804519E65E3F71A52BC55F11DA7601A13DCF505314 PUSH1 0x3 SSTORE PUSH1 0x4 DUP1 SLOAD PUSH7 0xA0003000186A0 PUSH1 0x1 PUSH1 0x1 PUSH1 0x50 SHL SUB NOT SWAP1 SWAP2 AND OR SWAP1 SSTORE CALLVALUE DUP1 ISZERO PUSH2 0x75 JUMPI PUSH1 0x0 DUP1 REVERT JUMPDEST POP PUSH1 0x40 MLOAD PUSH2 0x5D6 CODESIZE SUB DUP1 PUSH2 0x5D6 DUP4 CODECOPY DUP2 ADD PUSH1 0x40 DUP2 SWAP1 MSTORE PUSH2 0x94 SWAP2 PUSH2 0x10C JUMP JUMPDEST PUSH1 0x1 DUP1 SLOAD PUSH1 0x1 PUSH1 0x1 PUSH1 0xA0 SHL SUB DUP1 DUP3 AND PUSH1 0x80 DUP2 SWAP1 MSTORE PUSH1 0x7 DUP1 SLOAD CALLER PUSH1 0x1 PUSH1 0x1 PUSH1 0xA0 SHL SUB NOT SWAP2 DUP3 AND OR SWAP1 SWAP2 SSTORE PUSH1 0x0 DUP1 SLOAD DUP3 AND SWAP1 SWAP3 OR SWAP1 SWAP2 SSTORE SWAP2 DUP3 AND SWAP6 DUP2 AND SWAP6 SWAP1 SWAP6 OR SWAP1 SWAP2 SSTORE PUSH1 0x2 DUP1 SLOAD SWAP1 SWAP2 AND SWAP3 SWAP1 SWAP4 AND SWAP2 SWAP1 SWAP2 OR SWAP1 SWAP2 SSTORE PUSH1 0x3 SSTORE PUSH2 0x148 JUMP JUMPDEST DUP1 MLOAD PUSH1 0x1 PUSH1 0x1 PUSH1 0xA0 SHL SUB DUP2 AND DUP2 EQ PUSH2 0x107 JUMPI PUSH1 0x0 DUP1 REVERT JUMPDEST SWAP2 SWAP1 POP JUMP JUMPDEST PUSH1 0x0 DUP1 PUSH1 0x0 PUSH1 0x60 DUP5 DUP7 SUB SLT ISZERO PUSH2 0x121 JUMPI PUSH1 0x0 DUP1 REVERT JUMPDEST PUSH2 0x12A DUP5 PUSH2 0xF0 JUMP JUMPDEST SWAP3 POP PUSH2 0x138 PUSH1 0x20 DUP6 ADD PUSH2 0xF0 JUMP JUMPDEST SWAP2 POP PUSH1 0x40 DUP5 ADD MLOAD SWAP1 POP SWAP3 POP SWAP3 POP SWAP3 JUMP JUMPDEST PUSH1 0x80 MLOAD PUSH2 0x46D PUSH2 0x169 PUSH1 0x0 CODECOPY PUSH1 0x0 DUP2 DUP2 PUSH1 0xC5 ADD MSTORE PUSH2 0x107 ADD MSTORE PUSH2 0x46D PUSH1 0x0 RETURN INVALID PUSH1 0x80 PUSH1 0x40 MSTORE CALLVALUE DUP1 ISZERO PUSH2 0x10 JUMPI PUSH1 0x0 DUP1 REVERT JUMPDEST POP PUSH1 0x4 CALLDATASIZE LT PUSH2 0x57 JUMPI PUSH1 0x0 CALLDATALOAD PUSH1 0xE0 SHR DUP1 PUSH4 0x1FE543E3 EQ PUSH2 0x5C JUMPI DUP1 PUSH4 0xE0C86289 EQ PUSH2 0x71 JUMPI DUP1 PUSH4 0xE89E106A EQ PUSH2 0x79 JUMPI DUP1 PUSH4 0xEA7B4F77 EQ PUSH2 0x94 JUMPI DUP1 PUSH4 0xF6EAFFC8 EQ PUSH2 0xA7 JUMPI JUMPDEST PUSH1 0x0 DUP1 REVERT JUMPDEST PUSH2 0x6F PUSH2 0x6A CALLDATASIZE PUSH1 0x4 PUSH2 0x30C JUMP JUMPDEST PUSH2 0xBA JUMP JUMPDEST STOP JUMPDEST PUSH2 0x6F PUSH2 0x146 JUMP JUMPDEST PUSH2 0x82 PUSH1 0x6 SLOAD DUP2 JUMP JUMPDEST PUSH1 0x40 MLOAD SWAP1 DUP2 MSTORE PUSH1 0x20 ADD PUSH1 0x40 MLOAD DUP1 SWAP2 SUB SWAP1 RETURN JUMPDEST PUSH2 0x6F PUSH2 0xA2 CALLDATASIZE PUSH1 0x4 PUSH2 0x3D5 JUMP JUMPDEST PUSH2 0x21A JUMP JUMPDEST PUSH2 0x82 PUSH2 0xB5 CALLDATASIZE PUSH1 0x4 PUSH2 0x405 JUMP JUMPDEST PUSH2 0x25D JUMP JUMPDEST CALLER PUSH1 0x1 PUSH1 0x1 PUSH1 0xA0 SHL SUB PUSH32 0x0 AND EQ PUSH2 0x138 JUMPI PUSH1 0x40 MLOAD PUSH4 0x73E64FD PUSH1 0xE2 SHL DUP2 MSTORE CALLER PUSH1 0x4 DUP3 ADD MSTORE PUSH1 0x1 PUSH1 0x1 PUSH1 0xA0 SHL SUB PUSH32 0x0 AND PUSH1 0x24 DUP3 ADD MSTORE PUSH1 0x44 ADD PUSH1 0x40 MLOAD DUP1 SWAP2 SUB SWAP1 REVERT JUMPDEST PUSH2 0x142 DUP3 DUP3 PUSH2 0x27E JUMP JUMPDEST POP POP JUMP JUMPDEST PUSH1 0x7 SLOAD PUSH1 0x1 PUSH1 0x1 PUSH1 0xA0 SHL SUB AND CALLER EQ PUSH2 0x15D JUMPI PUSH1 0x0 DUP1 REVERT JUMPDEST PUSH1 0x0 SLOAD PUSH1 0x3 SLOAD PUSH1 0x4 DUP1 SLOAD PUSH1 0x40 MLOAD PUSH4 0x5D3B1D3 PUSH1 0xE4 SHL DUP2 MSTORE SWAP2 DUP3 ADD SWAP3 SWAP1 SWAP3 MSTORE PUSH1 0x1 PUSH1 0xA0 SHL DUP4 DIV PUSH1 0x1 PUSH1 0x1 PUSH1 0x40 SHL SUB AND PUSH1 0x24 DUP3 ADD MSTORE PUSH1 0x1 PUSH1 0x20 SHL DUP3 DIV PUSH2 0xFFFF AND PUSH1 0x44 DUP3 ADD MSTORE PUSH4 0xFFFFFFFF DUP1 DUP4 AND PUSH1 0x64 DUP4 ADD MSTORE PUSH1 0x1 PUSH1 0x30 SHL SWAP1 SWAP3 DIV SWAP1 SWAP2 AND PUSH1 0x84 DUP3 ADD MSTORE PUSH1 0x1 PUSH1 0x1 PUSH1 0xA0 SHL SUB SWAP1 SWAP2 AND SWAP1 PUSH4 0x5D3B1D30 SWAP1 PUSH1 0xA4 ADD PUSH1 0x20 PUSH1 0x40 MLOAD DUP1 DUP4 SUB DUP2 PUSH1 0x0 DUP8 GAS CALL ISZERO DUP1 ISZERO PUSH2 0x1F1 JUMPI RETURNDATASIZE PUSH1 0x0 DUP1 RETURNDATACOPY RETURNDATASIZE PUSH1 0x0 REVERT JUMPDEST POP POP POP POP PUSH1 0x40 MLOAD RETURNDATASIZE PUSH1 0x1F NOT PUSH1 0x1F DUP3 ADD AND DUP3 ADD DUP1 PUSH1 0x40 MSTORE POP DUP2 ADD SWAP1 PUSH2 0x215 SWAP2 SWAP1 PUSH2 0x41E JUMP JUMPDEST PUSH1 0x6 SSTORE JUMP JUMPDEST PUSH1 0x7 SLOAD PUSH1 0x1 PUSH1 0x1 PUSH1 0xA0 SHL SUB AND CALLER EQ PUSH2 0x231 JUMPI PUSH1 0x0 DUP1 REVERT JUMPDEST PUSH1 0x0 DUP1 SLOAD PUSH1 0x1 PUSH1 0x1 PUSH1 0x40 SHL SUB SWAP1 SWAP3 AND PUSH1 0x1 PUSH1 0xA0 SHL MUL PUSH1 0x1 PUSH1 0xA0 SHL PUSH1 0x1 PUSH1 0xE0 SHL SUB NOT SWAP1 SWAP3 AND SWAP2 SWAP1 SWAP2 OR SWAP1 SSTORE JUMP JUMPDEST PUSH1 0x5 DUP2 DUP2 SLOAD DUP2 LT PUSH2 0x26D JUMPI PUSH1 0x0 DUP1 REVERT JUMPDEST PUSH1 0x0 SWAP2 DUP3 MSTORE PUSH1 0x20 SWAP1 SWAP2 KECCAK256 ADD SLOAD SWAP1 POP DUP2 JUMP JUMPDEST DUP1 MLOAD PUSH2 0x291 SWAP1 PUSH1 0x5 SWAP1 PUSH1 0x20 DUP5 ADD SWAP1 PUSH2 0x296 JUMP JUMPDEST POP POP POP JUMP JUMPDEST DUP3 DUP1 SLOAD DUP3 DUP3 SSTORE SWAP1 PUSH1 0x0 MSTORE PUSH1 0x20 PUSH1 0x0 KECCAK256 SWAP1 DUP2 ADD SWAP3 DUP3 ISZERO PUSH2 0x2D1 JUMPI SWAP2 PUSH1 0x20 MUL DUP3 ADD JUMPDEST DUP3 DUP2 GT ISZERO PUSH2 0x2D1 JUMPI DUP3 MLOAD DUP3 SSTORE SWAP2 PUSH1 0x20 ADD SWAP2 SWAP1 PUSH1 0x1 ADD SWAP1 PUSH2 0x2B6 JUMP JUMPDEST POP PUSH2 0x2DD SWAP3 SWAP2 POP PUSH2 0x2E1 JUMP JUMPDEST POP SWAP1 JUMP JUMPDEST JUMPDEST DUP1 DUP3 GT ISZERO PUSH2 0x2DD JUMPI PUSH1 0x0 DUP2 SSTORE PUSH1 0x1 ADD PUSH2 0x2E2 JUMP JUMPDEST PUSH4 0x4E487B71 PUSH1 0xE0 SHL PUSH1 0x0 MSTORE PUSH1 0x41 PUSH1 0x4 MSTORE PUSH1 0x24 PUSH1 0x0 REVERT JUMPDEST PUSH1 0x0 DUP1 PUSH1 0x40 DUP4 DUP6 SUB SLT ISZERO PUSH2 0x31F JUMPI PUSH1 0x0 DUP1 REVERT JUMPDEST DUP3 CALLDATALOAD SWAP2 POP PUSH1 0x20 DUP1 DUP5 ADD CALLDATALOAD PUSH1 0x1 PUSH1 0x1 PUSH1 0x40 SHL SUB DUP1 DUP3 GT ISZERO PUSH2 0x33E JUMPI PUSH1 0x0 DUP1 REVERT JUMPDEST DUP2 DUP7 ADD SWAP2 POP DUP7 PUSH1 0x1F DUP4 ADD SLT PUSH2 0x352 JUMPI PUSH1 0x0 DUP1 REVERT JUMPDEST DUP2 CALLDATALOAD DUP2 DUP2 GT ISZERO PUSH2 0x364 JUMPI PUSH2 0x364 PUSH2 0x2F6 JUMP JUMPDEST DUP1 PUSH1 0x5 SHL PUSH1 0x40 MLOAD PUSH1 0x1F NOT PUSH1 0x3F DUP4 ADD AND DUP2 ADD DUP2 DUP2 LT DUP6 DUP3 GT OR ISZERO PUSH2 0x389 JUMPI PUSH2 0x389 PUSH2 0x2F6 JUMP JUMPDEST PUSH1 0x40 MSTORE SWAP2 DUP3 MSTORE DUP5 DUP3 ADD SWAP3 POP DUP4 DUP2 ADD DUP6 ADD SWAP2 DUP10 DUP4 GT ISZERO PUSH2 0x3A7 JUMPI PUSH1 0x0 DUP1 REVERT JUMPDEST SWAP4 DUP6 ADD SWAP4 JUMPDEST DUP3 DUP6 LT ISZERO PUSH2 0x3C5 JUMPI DUP5 CALLDATALOAD DUP5 MSTORE SWAP4 DUP6 ADD SWAP4 SWAP3 DUP6 ADD SWAP3 PUSH2 0x3AC JUMP JUMPDEST DUP1 SWAP7 POP POP POP POP POP POP POP SWAP3 POP SWAP3 SWAP1 POP JUMP JUMPDEST PUSH1 0x0 PUSH1 0x20 DUP3 DUP5 SUB SLT ISZERO PUSH2 0x3E7 JUMPI PUSH1 0x0 DUP1 REVERT JUMPDEST DUP2 CALLDATALOAD PUSH1 0x1 PUSH1 0x1 PUSH1 0x40 SHL SUB DUP2 AND DUP2 EQ PUSH2 0x3FE JUMPI PUSH1 0x0 DUP1 REVERT JUMPDEST SWAP4 SWAP3 POP POP POP JUMP JUMPDEST PUSH1 0x0 PUSH1 0x20 DUP3 DUP5 SUB SLT ISZERO PUSH2 0x417 JUMPI PUSH1 0x0 DUP1 REVERT JUMPDEST POP CALLDATALOAD SWAP2 SWAP1 POP JUMP JUMPDEST PUSH1 0x0 PUSH1 0x20 DUP3 DUP5 SUB SLT ISZERO PUSH2 0x430 JUMPI PUSH1 0x0 DUP1 REVERT JUMPDEST POP MLOAD SWAP2 SWAP1 POP JUMP INVALID LOG2 PUSH5 0x6970667358 0x22 SLT KECCAK256 0xE3 0x4F 0x2A 0xD1 PUSH20 0xEB8264EAFD167B004EA21F69A127C480F6A8469 PUSH1 0x29 0x22 0x5C 0xC0 0xD7 GASLIMIT PUSH5 0x736F6C6343 STOP ADDMOD 0xF STOP CALLER "
        },
        "methodIdentifiers": {
          "rawFulfillRandomWords(uint256,uint256[])": "1fe543e3",
          "requestRandomWords()": "e0c86289",
          "s_randomWords(uint256)": "f6eaffc8",
          "s_requestId()": "e89e106a",
          "setSubscriptionId(uint64)": "ea7b4f77"
        }
      },
      "storageLayout": {
        "storage": [
          {
            "astId": 885,
            "contract": "contracts/TykheLuckyOracle.sol:TykheLuckyOracle",
            "label": "COORDINATOR",
            "offset": 0,
            "slot": "0",
            "type": "t_contract(VRFCoordinatorV2Interface)241"
          },
          {
            "astId": 887,
            "contract": "contracts/TykheLuckyOracle.sol:TykheLuckyOracle",
            "label": "s_subscriptionId",
            "offset": 20,
            "slot": "0",
            "type": "t_uint64"
          },
          {
            "astId": 890,
            "contract": "contracts/TykheLuckyOracle.sol:TykheLuckyOracle",
            "label": "vrfCoordinator",
            "offset": 0,
            "slot": "1",
            "type": "t_address"
          },
          {
            "astId": 892,
            "contract": "contracts/TykheLuckyOracle.sol:TykheLuckyOracle",
            "label": "link_token_contract",
            "offset": 0,
            "slot": "2",
            "type": "t_address"
          },
          {
            "astId": 895,
            "contract": "contracts/TykheLuckyOracle.sol:TykheLuckyOracle",
            "label": "keyHash",
            "offset": 0,
            "slot": "3",
            "type": "t_bytes32"
          },
          {
            "astId": 898,
            "contract": "contracts/TykheLuckyOracle.sol:TykheLuckyOracle",
            "label": "callbackGasLimit",
            "offset": 0,
            "slot": "4",
            "type": "t_uint32"
          },
          {
            "astId": 901,
            "contract": "contracts/TykheLuckyOracle.sol:TykheLuckyOracle",
            "label": "requestConfirmations",
            "offset": 4,
            "slot": "4",
            "type": "t_uint16"
          },
          {
            "astId": 904,
            "contract": "contracts/TykheLuckyOracle.sol:TykheLuckyOracle",
            "label": "numWords",
            "offset": 6,
            "slot": "4",
            "type": "t_uint32"
          },
          {
            "astId": 907,
            "contract": "contracts/TykheLuckyOracle.sol:TykheLuckyOracle",
            "label": "s_randomWords",
            "offset": 0,
            "slot": "5",
            "type": "t_array(t_uint256)dyn_storage"
          },
          {
            "astId": 909,
            "contract": "contracts/TykheLuckyOracle.sol:TykheLuckyOracle",
            "label": "s_requestId",
            "offset": 0,
            "slot": "6",
            "type": "t_uint256"
          },
          {
            "astId": 911,
            "contract": "contracts/TykheLuckyOracle.sol:TykheLuckyOracle",
            "label": "s_owner",
            "offset": 0,
            "slot": "7",
            "type": "t_address"
          }
        ],
        "types": {
          "t_address": {
            "encoding": "inplace",
            "label": "address",
            "numberOfBytes": "20"
          },
          "t_array(t_uint256)dyn_storage": {
            "base": "t_uint256",
            "encoding": "dynamic_array",
            "label": "uint256[]",
            "numberOfBytes": "32"
          },
          "t_bytes32": {
            "encoding": "inplace",
            "label": "bytes32",
            "numberOfBytes": "32"
          },
          "t_contract(VRFCoordinatorV2Interface)241": {
            "encoding": "inplace",
            "label": "contract VRFCoordinatorV2Interface",
            "numberOfBytes": "20"
          },
          "t_uint16": {
            "encoding": "inplace",
            "label": "uint16",
            "numberOfBytes": "2"
          },
          "t_uint256": {
            "encoding": "inplace",
            "label": "uint256",
            "numberOfBytes": "32"
          },
          "t_uint32": {
            "encoding": "inplace",
            "label": "uint32",
            "numberOfBytes": "4"
          },
          "t_uint64": {
            "encoding": "inplace",
            "label": "uint64",
            "numberOfBytes": "8"
          }
        }
      }
    }
  }
}