{
  "_format": "hh-sol-artifact-1",
  "contractName": "CoinFlip",
  "sourceName": "contracts/CoinFlip.sol",
  "abi": [
    {
      "anonymous": false,
      "inputs": [
        {
          "indexed": false,
          "internalType": "uint8",
          "name": "version",
          "type": "uint8"
        }
      ],
      "name": "Initialized",
      "type": "event"
    },
    {
      "anonymous": false,
      "inputs": [
        {
          "indexed": true,
          "internalType": "address",
          "name": "previousOwner",
          "type": "address"
        },
        {
          "indexed": true,
          "internalType": "address",
          "name": "newOwner",
          "type": "address"
        }
      ],
      "name": "OwnershipTransferred",
      "type": "event"
    },
    {
      "inputs": [
        {
          "internalType": "uint256",
          "name": "mode",
          "type": "uint256"
        }
      ],
      "name": "flipCoinHead",
      "outputs": [],
      "stateMutability": "payable",
      "type": "function"
    },
    {
      "inputs": [
        {
          "internalType": "uint256",
          "name": "mode",
          "type": "uint256"
        }
      ],
      "name": "flipCoinTail",
      "outputs": [],
      "stateMutability": "payable",
      "type": "function"
    },
    {
      "inputs": [],
      "name": "getLastFlips",
      "outputs": [
        {
          "components": [
            {
              "internalType": "address",
              "name": "user",
              "type": "address"
            },
            {
              "internalType": "uint256",
              "name": "timestamp",
              "type": "uint256"
            },
            {
              "internalType": "uint256",
              "name": "flipNumber",
              "type": "uint256"
            },
            {
              "internalType": "bool",
              "name": "flipResult",
              "type": "bool"
            }
          ],
          "internalType": "struct Flip[]",
          "name": "",
          "type": "tuple[]"
        }
      ],
      "stateMutability": "view",
      "type": "function"
    },
    {
      "inputs": [
        {
          "internalType": "address",
          "name": "_tykheLuckyOracleAddress",
          "type": "address"
        }
      ],
      "name": "initialize",
      "outputs": [],
      "stateMutability": "nonpayable",
      "type": "function"
    },
    {
      "inputs": [
        {
          "internalType": "uint256",
          "name": "",
          "type": "uint256"
        }
      ],
      "name": "usersFlips",
      "outputs": [
        {
          "internalType": "address",
          "name": "user",
          "type": "address"
        },
        {
          "internalType": "uint256",
          "name": "timestamp",
          "type": "uint256"
        },
        {
          "internalType": "uint256",
          "name": "flipNumber",
          "type": "uint256"
        },
        {
          "internalType": "bool",
          "name": "flipResult",
          "type": "bool"
        }
      ],
      "stateMutability": "view",
      "type": "function"
    }
  ],
  "bytecode": "0x608060405234801561001057600080fd5b506109fb806100206000396000f3fe60806040526004361061004a5760003560e01c8063a0f0a1e31461004f578063b97229b9146100d2578063c4d66de8146100f4578063c990e12614610116578063e9d4a96b14610129575b600080fd5b34801561005b57600080fd5b506100a161006a366004610778565b600160208190526000918252604090912080549181015460028201546003909201546001600160a01b039093169290919060ff1684565b604080516001600160a01b039095168552602085019390935291830152151560608201526080015b60405180910390f35b3480156100de57600080fd5b506100e761013c565b6040516100c99190610791565b34801561010057600080fd5b5061011461010f366004610800565b610242565b005b610114610124366004610778565b610388565b610114610137366004610778565b6105f4565b606060006002546001600160401b0381111561015a5761015a610830565b6040519080825280602002602001820160405280156101ac57816020015b6040805160808101825260008082526020808301829052928201819052606082015282526000199092019101816101785790505b50905060005b60025481101561023c57600081815260016020818152604092839020835160808101855281546001600160a01b03168152928101549183019190915260028101549282019290925260039091015460ff1615156060820152825183908390811061021e5761021e610846565b6020026020010181905250808061023490610872565b9150506101b2565b50919050565b600054610100900460ff16158080156102625750600054600160ff909116105b8061027c5750303b15801561027c575060005460ff166001145b6102e45760405162461bcd60e51b815260206004820152602e60248201527f496e697469616c697a61626c653a20636f6e747261637420697320616c72656160448201526d191e481a5b9a5d1a585b1a5e995960921b60648201526084015b60405180910390fd5b6000805460ff191660011790558015610307576000805461ff0019166101001790555b6000805462010000600160b01b031916336201000002178155600255600380546001600160a01b0319166001600160a01b0384161790558015610384576000805461ff0019169055604051600181527f7f26b83ff96e1f2b6a682f133852f6798a09c465da95921460cefb38474024989060200160405180910390a15b5050565b66b1a2bc2ec5000060008290036103a7575066b1a2bc2ec50000610451565b816001036103be575067016345785d8a0000610451565b816002036103d557506703782dace9d90000610451565b816003036103ec57506706f05b59d3b20000610451565b816004036104035750670de0b6b3a7640000610451565b8160050361041a5750671bc16d674ec80000610451565b60405162461bcd60e51b815260206004820152600c60248201526b696e76616c6964206d6f646560a01b60448201526064016102db565b803410156104715760405162461bcd60e51b81526004016102db9061088b565b600354604080516376b783c960e11b815290516000926001600160a01b03169163ed6f079291600480830192869291908290030181865afa1580156104ba573d6000803e3d6000fd5b505050506040513d6000823e601f3d908101601f191682016040526104e291908101906108af565b6000815181106104f4576104f4610846565b60200260200101519050600060028261050d919061096c565b60408051608081018252338152426020820152908101849052901515606082018190526002805491935060019160009061054890849061098e565b909155505060028054600090815260016020818152604092839020855181546001600160a01b0319166001600160a01b039091161781559085015191810191909155908301519181019190915560608201516003909101805460ff191691151591909117905581156105ed57336108fc6105c33460026109a6565b6040518115909202916000818181858888f193505050501580156105eb573d6000803e3d6000fd5b505b5050505050565b66b1a2bc2ec500006000829003610613575066b1a2bc2ec50000610682565b8160010361062a575067016345785d8a0000610682565b8160020361064157506703782dace9d90000610682565b8160030361065857506706f05b59d3b20000610682565b8160040361066f5750670de0b6b3a7640000610682565b8160050361041a5750671bc16d674ec800005b803410156106a25760405162461bcd60e51b81526004016102db9061088b565b600354604080516376b783c960e11b815290516000926001600160a01b03169163ed6f079291600480830192869291908290030181865afa1580156106eb573d6000803e3d6000fd5b505050506040513d6000823e601f3d908101601f1916820160405261071391908101906108af565b60008151811061072557610725610846565b60200260200101519050600060028261073e919061096c565b604080516080810182523381524260208201529081018490529015606082018190526002805491935060019160009061054890849061098e565b60006020828403121561078a57600080fd5b5035919050565b602080825282518282018190526000919060409081850190868401855b828110156107f357815180516001600160a01b0316855286810151878601528581015186860152606090810151151590850152608090930192908501906001016107ae565b5091979650505050505050565b60006020828403121561081257600080fd5b81356001600160a01b038116811461082957600080fd5b9392505050565b634e487b7160e01b600052604160045260246000fd5b634e487b7160e01b600052603260045260246000fd5b634e487b7160e01b600052601160045260246000fd5b6000600182016108845761088461085c565b5060010190565b6020808252600a9082015269131bddc8185b5bdd5b9d60b21b604082015260600190565b600060208083850312156108c257600080fd5b82516001600160401b03808211156108d957600080fd5b818501915085601f8301126108ed57600080fd5b8151818111156108ff576108ff610830565b8060051b604051601f19603f8301168101818110858211171561092457610924610830565b60405291825284820192508381018501918883111561094257600080fd5b938501935b8285101561096057845184529385019392850192610947565b98975050505050505050565b60008261098957634e487b7160e01b600052601260045260246000fd5b500690565b600082198211156109a1576109a161085c565b500190565b60008160001904831182151516156109c0576109c061085c565b50029056fea2646970667358221220a86293e55a2a8c2623467b26baef363be25fdcb0feaabd5f1e5f979e506fa46b64736f6c634300080f0033",
  "linkReferences": {},
  "deployedLinkReferences": {}
}