{
  "_format": "hh-sol-artifact-1",
  "contractName": "CoinFlip",
  "sourceName": "contracts/CoinFlip.sol",
  "abi": [
    {
      "anonymous": false,
      "inputs": [
        {
          "indexed": false,
          "internalType": "uint8",
          "name": "version",
          "type": "uint8"
        }
      ],
      "name": "Initialized",
      "type": "event"
    },
    {
      "anonymous": false,
      "inputs": [
        {
          "indexed": true,
          "internalType": "address",
          "name": "previousOwner",
          "type": "address"
        },
        {
          "indexed": true,
          "internalType": "address",
          "name": "newOwner",
          "type": "address"
        }
      ],
      "name": "OwnershipTransferred",
      "type": "event"
    },
    {
      "inputs": [],
      "name": "flipCoin",
      "outputs": [],
      "stateMutability": "payable",
      "type": "function"
    },
    {
      "inputs": [],
      "name": "getFlipPrice",
      "outputs": [
        {
          "internalType": "uint256",
          "name": "",
          "type": "uint256"
        }
      ],
      "stateMutability": "view",
      "type": "function"
    },
    {
      "inputs": [],
      "name": "getFlipResult",
      "outputs": [
        {
          "internalType": "bool",
          "name": "",
          "type": "bool"
        }
      ],
      "stateMutability": "view",
      "type": "function"
    },
    {
      "inputs": [
        {
          "internalType": "address",
          "name": "_tykheLuckyOracleAddress",
          "type": "address"
        }
      ],
      "name": "initialize",
      "outputs": [],
      "stateMutability": "nonpayable",
      "type": "function"
    },
    {
      "inputs": [
        {
          "internalType": "address",
          "name": "",
          "type": "address"
        }
      ],
      "name": "usersFlips",
      "outputs": [
        {
          "internalType": "address",
          "name": "user",
          "type": "address"
        },
        {
          "internalType": "uint256",
          "name": "timestamp",
          "type": "uint256"
        },
        {
          "internalType": "uint256",
          "name": "flipNumber",
          "type": "uint256"
        },
        {
          "internalType": "bool",
          "name": "flipResult",
          "type": "bool"
        }
      ],
      "stateMutability": "view",
      "type": "function"
    }
  ],
  "bytecode": "0x608060405234801561001057600080fd5b506103bc806100206000396000f3fe60806040526004361061004a5760003560e01c806350fa12c71461004f5780636847124914610087578063799ae223146100a5578063c4d66de8146100af578063faf08007146100cf575b600080fd5b34801561005b57600080fd5b503360009081526002602052604090206003015460ff1660405190151581526020015b60405180910390f35b34801561009357600080fd5b5060015460405190815260200161007e565b6100ad61014c565b005b3480156100bb57600080fd5b506100ad6100ca366004610356565b61020a565b3480156100db57600080fd5b506101206100ea366004610356565b600260208190526000918252604090912080546001820154928201546003909201546001600160a01b0390911692919060ff1684565b604080516001600160a01b0390951685526020850193909352918301521515606082015260800161007e565b6001543410156101905760405162461bcd60e51b815260206004820152600a602482015269131bddc8185b5bdd5b9d60b21b60448201526064015b60405180910390fd5b60408051608081018252338082524260208084019182526104bc848601908152600160608601818152600095865260029384905296909420945185546001600160a01b0319166001600160a01b03909116178555915192840192909255519082015590516003909101805460ff1916911515919091179055565b600054610100900460ff161580801561022a5750600054600160ff909116105b806102445750303b158015610244575060005460ff166001145b6102a75760405162461bcd60e51b815260206004820152602e60248201527f496e697469616c697a61626c653a20636f6e747261637420697320616c72656160448201526d191e481a5b9a5d1a585b1a5e995960921b6064820152608401610187565b6000805460ff1916600117905580156102ca576000805461ff0019166101001790555b6000805462010000600160b01b031916336201000002178155662386f26fc10000600155600355600480546001600160a01b0319166001600160a01b0384161790558015610352576000805461ff0019169055604051600181527f7f26b83ff96e1f2b6a682f133852f6798a09c465da95921460cefb38474024989060200160405180910390a15b5050565b60006020828403121561036857600080fd5b81356001600160a01b038116811461037f57600080fd5b939250505056fea2646970667358221220ef15716a6f579b51fc7180db052cd385ad4f6aa1c29d3d9dd28025bdd069bc7c64736f6c634300080f0033",
  "linkReferences": {},
  "deployedLinkReferences": {}
}