{
  "_format": "hh-sol-artifact-1",
  "contractName": "CoinFlip",
  "sourceName": "contracts/CoinFlip.sol",
  "abi": [
    {
      "anonymous": false,
      "inputs": [
        {
          "indexed": false,
          "internalType": "uint8",
          "name": "version",
          "type": "uint8"
        }
      ],
      "name": "Initialized",
      "type": "event"
    },
    {
      "anonymous": false,
      "inputs": [
        {
          "indexed": true,
          "internalType": "address",
          "name": "previousOwner",
          "type": "address"
        },
        {
          "indexed": true,
          "internalType": "address",
          "name": "newOwner",
          "type": "address"
        }
      ],
      "name": "OwnershipTransferred",
      "type": "event"
    },
    {
      "inputs": [],
      "name": "getSubscriptionDetails",
      "outputs": [],
      "stateMutability": "view",
      "type": "function"
    },
    {
      "inputs": [
        {
          "internalType": "address",
          "name": "_tykheLuckyOracleAddress",
          "type": "address"
        }
      ],
      "name": "initialize",
      "outputs": [],
      "stateMutability": "nonpayable",
      "type": "function"
    }
  ],
  "bytecode": "0x608060405234801561001057600080fd5b506101f3806100206000396000f3fe608060405234801561001057600080fd5b50600436106100365760003560e01c80630d5de6df1461003b578063c4d66de81461003d575b600080fd5b005b61003b61004b36600461018d565b600054610100900460ff161580801561006b5750600054600160ff909116105b806100855750303b158015610085575060005460ff166001145b6100ec5760405162461bcd60e51b815260206004820152602e60248201527f496e697469616c697a61626c653a20636f6e747261637420697320616c72656160448201526d191e481a5b9a5d1a585b1a5e995960921b606482015260840160405180910390fd5b6000805460ff19166001179055801561010f576000805461ff0019166101001790555b6000805462010000600160b01b031916336201000002179055600180546001600160a01b0319166001600160a01b0384161790558015610189576000805461ff0019169055604051600181527f7f26b83ff96e1f2b6a682f133852f6798a09c465da95921460cefb38474024989060200160405180910390a15b5050565b60006020828403121561019f57600080fd5b81356001600160a01b03811681146101b657600080fd5b939250505056fea2646970667358221220038edc6ba0eb4b1524c40ad351aa2add303f606cdc6dcbf66e4e22b5259f10fe64736f6c634300080f0033",
  "linkReferences": {},
  "deployedLinkReferences": {}
}