{
  "_format": "hh-sol-artifact-1",
  "contractName": "CoinFlip",
  "sourceName": "contracts/CoinFlip.sol",
  "abi": [
    {
      "anonymous": false,
      "inputs": [
        {
          "indexed": false,
          "internalType": "uint8",
          "name": "version",
          "type": "uint8"
        }
      ],
      "name": "Initialized",
      "type": "event"
    },
    {
      "anonymous": false,
      "inputs": [
        {
          "indexed": true,
          "internalType": "address",
          "name": "previousOwner",
          "type": "address"
        },
        {
          "indexed": true,
          "internalType": "address",
          "name": "newOwner",
          "type": "address"
        }
      ],
      "name": "OwnershipTransferred",
      "type": "event"
    },
    {
      "inputs": [],
      "name": "flipCoin",
      "outputs": [],
      "stateMutability": "payable",
      "type": "function"
    },
    {
      "inputs": [],
      "name": "getFlipPrice",
      "outputs": [
        {
          "internalType": "uint256",
          "name": "",
          "type": "uint256"
        }
      ],
      "stateMutability": "view",
      "type": "function"
    },
    {
      "inputs": [
        {
          "internalType": "address",
          "name": "_tykheLuckyOracleAddress",
          "type": "address"
        }
      ],
      "name": "initialize",
      "outputs": [],
      "stateMutability": "nonpayable",
      "type": "function"
    },
    {
      "inputs": [
        {
          "internalType": "address",
          "name": "",
          "type": "address"
        }
      ],
      "name": "usersFlips",
      "outputs": [
        {
          "internalType": "address",
          "name": "user",
          "type": "address"
        },
        {
          "internalType": "uint256",
          "name": "timestamp",
          "type": "uint256"
        },
        {
          "internalType": "uint256",
          "name": "flipNumber",
          "type": "uint256"
        },
        {
          "internalType": "bool",
          "name": "flipResult",
          "type": "bool"
        }
      ],
      "stateMutability": "view",
      "type": "function"
    }
  ],
  "bytecode": "0x608060405234801561001057600080fd5b5061053e806100206000396000f3fe60806040526004361061003f5760003560e01c80636847124914610044578063799ae22314610067578063c4d66de814610071578063faf0800714610091575b600080fd5b34801561005057600080fd5b506001546040519081526020015b60405180910390f35b61006f61010e565b005b34801561007d57600080fd5b5061006f61008c3660046103cd565b610281565b34801561009d57600080fd5b506100e26100ac3660046103cd565b600260208190526000918252604090912080546001820154928201546003909201546001600160a01b0390911692919060ff1684565b604080516001600160a01b0390951685526020850193909352918301521515606082015260800161005e565b6001543410156101525760405162461bcd60e51b815260206004820152600a602482015269131bddc8185b5bdd5b9d60b21b60448201526064015b60405180910390fd5b6000600460009054906101000a90046001600160a01b03166001600160a01b031663ed6f07926040518163ffffffff1660e01b8152600401600060405180830381865afa1580156101a7573d6000803e3d6000fd5b505050506040513d6000823e601f3d908101601f191682016040526101cf9190810190610413565b6000815181106101e1576101e16104d0565b6020026020010151905060006040518060800160405280336001600160a01b0316815260200142815260200183815260200160028461022091906104e6565b15905233600090815260026020818152604092839020845181546001600160a01b0319166001600160a01b0390911617815590840151600182015591830151908201556060909101516003909101805460ff19169115159190911790555050565b600054610100900460ff16158080156102a15750600054600160ff909116105b806102bb5750303b1580156102bb575060005460ff166001145b61031e5760405162461bcd60e51b815260206004820152602e60248201527f496e697469616c697a61626c653a20636f6e747261637420697320616c72656160448201526d191e481a5b9a5d1a585b1a5e995960921b6064820152608401610149565b6000805460ff191660011790558015610341576000805461ff0019166101001790555b6000805462010000600160b01b031916336201000002178155662386f26fc10000600155600355600480546001600160a01b0319166001600160a01b03841617905580156103c9576000805461ff0019169055604051600181527f7f26b83ff96e1f2b6a682f133852f6798a09c465da95921460cefb38474024989060200160405180910390a15b5050565b6000602082840312156103df57600080fd5b81356001600160a01b03811681146103f657600080fd5b9392505050565b634e487b7160e01b600052604160045260246000fd5b6000602080838503121561042657600080fd5b82516001600160401b038082111561043d57600080fd5b818501915085601f83011261045157600080fd5b815181811115610463576104636103fd565b8060051b604051601f19603f83011681018181108582111715610488576104886103fd565b6040529182528482019250838101850191888311156104a657600080fd5b938501935b828510156104c4578451845293850193928501926104ab565b98975050505050505050565b634e487b7160e01b600052603260045260246000fd5b60008261050357634e487b7160e01b600052601260045260246000fd5b50069056fea26469706673582212206f2298973be6e92dfd70ab00ca4273b75b82aebe2128a4cbcabcd6e594ad614f64736f6c634300080f0033",
  "linkReferences": {},
  "deployedLinkReferences": {}
}