{
    "contractName": "CoinFlip",
    "abi": [
        {
            "inputs": [],
            "stateMutability": "nonpayable",
            "type": "constructor"
        },
        {
            "inputs": [
                {
                    "internalType": "address",
                    "name": "have",
                    "type": "address"
                },
                {
                    "internalType": "address",
                    "name": "want",
                    "type": "address"
                }
            ],
            "name": "OnlyCoordinatorCanFulfill",
            "type": "error"
        },
        {
            "inputs": [
                {
                    "internalType": "address",
                    "name": "consumerAddress",
                    "type": "address"
                }
            ],
            "name": "addConsumer",
            "outputs": [],
            "stateMutability": "nonpayable",
            "type": "function"
        },
        {
            "inputs": [
                {
                    "internalType": "address",
                    "name": "receivingWallet",
                    "type": "address"
                }
            ],
            "name": "cancelSubscription",
            "outputs": [],
            "stateMutability": "nonpayable",
            "type": "function"
        },
        {
            "inputs": [
                {
                    "internalType": "bool",
                    "name": "bet",
                    "type": "bool"
                },
                {
                    "internalType": "uint256",
                    "name": "mode",
                    "type": "uint256"
                }
            ],
            "name": "flipCoin",
            "outputs": [],
            "stateMutability": "payable",
            "type": "function"
        },
        {
            "inputs": [],
            "name": "getLastFlips",
            "outputs": [
                {
                    "components": [
                        {
                            "internalType": "address",
                            "name": "user",
                            "type": "address"
                        },
                        {
                            "internalType": "uint256",
                            "name": "timestamp",
                            "type": "uint256"
                        },
                        {
                            "internalType": "uint256",
                            "name": "flipNumber",
                            "type": "uint256"
                        },
                        {
                            "internalType": "bool",
                            "name": "flipResult",
                            "type": "bool"
                        }
                    ],
                    "internalType": "struct Flip[]",
                    "name": "",
                    "type": "tuple[]"
                }
            ],
            "stateMutability": "view",
            "type": "function"
        },
        {
            "inputs": [],
            "name": "getSubscriptionDetails",
            "outputs": [
                {
                    "internalType": "uint96",
                    "name": "balance",
                    "type": "uint96"
                },
                {
                    "internalType": "uint64",
                    "name": "reqCount",
                    "type": "uint64"
                },
                {
                    "internalType": "address",
                    "name": "owner",
                    "type": "address"
                },
                {
                    "internalType": "address[]",
                    "name": "consumers",
                    "type": "address[]"
                }
            ],
            "stateMutability": "view",
            "type": "function"
        },
        {
            "inputs": [],
            "name": "initialRequestRandomWords",
            "outputs": [],
            "stateMutability": "nonpayable",
            "type": "function"
        },
        {
            "inputs": [],
            "name": "pendingRequestExists",
            "outputs": [
                {
                    "internalType": "bool",
                    "name": "",
                    "type": "bool"
                }
            ],
            "stateMutability": "view",
            "type": "function"
        },
        {
            "inputs": [
                {
                    "internalType": "uint256",
                    "name": "requestId",
                    "type": "uint256"
                },
                {
                    "internalType": "uint256[]",
                    "name": "randomWords",
                    "type": "uint256[]"
                }
            ],
            "name": "rawFulfillRandomWords",
            "outputs": [],
            "stateMutability": "nonpayable",
            "type": "function"
        },
        {
            "inputs": [
                {
                    "internalType": "address",
                    "name": "consumerAddress",
                    "type": "address"
                }
            ],
            "name": "removeConsumer",
            "outputs": [],
            "stateMutability": "nonpayable",
            "type": "function"
        },
        {
            "inputs": [
                {
                    "internalType": "uint256",
                    "name": "",
                    "type": "uint256"
                }
            ],
            "name": "s_randomWords",
            "outputs": [
                {
                    "internalType": "uint256",
                    "name": "",
                    "type": "uint256"
                }
            ],
            "stateMutability": "view",
            "type": "function"
        },
        {
            "inputs": [],
            "name": "s_requestId",
            "outputs": [
                {
                    "internalType": "uint256",
                    "name": "",
                    "type": "uint256"
                }
            ],
            "stateMutability": "view",
            "type": "function"
        },
        {
            "inputs": [],
            "name": "s_subscriptionId",
            "outputs": [
                {
                    "internalType": "uint64",
                    "name": "",
                    "type": "uint64"
                }
            ],
            "stateMutability": "view",
            "type": "function"
        },
        {
            "inputs": [
                {
                    "internalType": "uint256",
                    "name": "amount",
                    "type": "uint256"
                }
            ],
            "name": "topUpSubscription",
            "outputs": [],
            "stateMutability": "nonpayable",
            "type": "function"
        },
        {
            "inputs": [
                {
                    "internalType": "uint256",
                    "name": "",
                    "type": "uint256"
                }
            ],
            "name": "usersFlips",
            "outputs": [
                {
                    "internalType": "address",
                    "name": "user",
                    "type": "address"
                },
                {
                    "internalType": "uint256",
                    "name": "timestamp",
                    "type": "uint256"
                },
                {
                    "internalType": "uint256",
                    "name": "flipNumber",
                    "type": "uint256"
                },
                {
                    "internalType": "bool",
                    "name": "flipResult",
                    "type": "bool"
                }
            ],
            "stateMutability": "view",
            "type": "function"
        },
        {
            "inputs": [
                {
                    "internalType": "uint256",
                    "name": "amount",
                    "type": "uint256"
                },
                {
                    "internalType": "address",
                    "name": "to",
                    "type": "address"
                }
            ],
            "name": "withdraw",
            "outputs": [],
            "stateMutability": "nonpayable",
            "type": "function"
        }
    ],
    "bytecode": "60a0604052600280546001600160a01b0319908116736a2aad07396b36fe02a22b33cf443582f682c82f17909155600380549091167384b9b910527ad5c03a9ca831909e21e236ea7b061790557fd4bb89654db74673a187bd804519e65e3f71a52bc55f11da7601a13dcf50531460045560058054660a0001000186a06001600160501b03199091161790553480156200009857600080fd5b506002546001600160a01b0390811660805260088054600160401b600160e01b031916336801000000000000000090810291909117918290556000600a819055600b5560035460405163095ea7b360e01b81529190920483166004820152600019602482015291169063095ea7b3906044016020604051808303816000875af11580156200012a573d6000803e3d6000fd5b505050506040513d601f19601f8201168201806040525081019062000150919062000417565b5060035460405163095ea7b360e01b815230600482015260001960248201526001600160a01b039091169063095ea7b3906044016020604051808303816000875af1158015620001a4573d6000803e3d6000fd5b505050506040513d601f19601f82011682018060405250810190620001ca919062000417565b50600254600080546001600160a01b0319166001600160a01b03909216919091179055620001f7620001fd565b62000483565b6008546801000000000000000090046001600160a01b031633146200022157600080fd5b6008546001600160401b0316156200027f5760405162461bcd60e51b815260206004820152601c60248201527f4120737562736372697074696f6e20616c726561647920657869737400000000604482015260640160405180910390fd5b604080516001808252818301909252600091602080830190803683370190505090503081600081518110620002b857620002b862000442565b60200260200101906001600160a01b031690816001600160a01b03168152505060008054906101000a90046001600160a01b03166001600160a01b031663a21a23e46040518163ffffffff1660e01b81526004016020604051808303816000875af11580156200032c573d6000803e3d6000fd5b505050506040513d601f19601f8201168201806040525081019062000352919062000458565b600880546001600160401b0319166001600160401b039290921691821790556000805483516001600160a01b0390911692637341c10c9290918591906200039d576200039d62000442565b60200260200101516040518363ffffffff1660e01b8152600401620003e09291906001600160401b039290921682526001600160a01b0316602082015260400190565b600060405180830381600087803b158015620003fb57600080fd5b505af115801562000410573d6000803e3d6000fd5b5050505050565b6000602082840312156200042a57600080fd5b815180151581146200043b57600080fd5b9392505050565b634e487b7160e01b600052603260045260246000fd5b6000602082840312156200046b57600080fd5b81516001600160401b03811681146200043b57600080fd5b6080516112c2620004a6600039600081816107e7015261082901526112c26000f3fe6080604052600436106100e75760003560e01c80638ac000211161008a578063b97229b911610059578063b97229b9146102c7578063e1e8681f146102e9578063e89e106a146102fe578063f6eaffc81461032257600080fd5b80638ac00021146101cf57806393d81d5814610207578063a0f0a1e314610227578063a3ced7b9146102a257600080fd5b80630e27e3df116100c65780630e27e3df1461014f578063112940f91461016f5780631fe543e31461018f57806386850e93146101af57600080fd5b8062f714ce146100ec5780630c9975971461010e5780630d5de6df14610121575b600080fd5b3480156100f857600080fd5b5061010c610107366004610d97565b610342565b005b61010c61011c366004610dd5565b6103dc565b34801561012d57600080fd5b50610136610654565b6040516101469493929190610e01565b60405180910390f35b34801561015b57600080fd5b5061010c61016a366004610e80565b6106e5565b34801561017b57600080fd5b5061010c61018a366004610e80565b610779565b34801561019b57600080fd5b5061010c6101aa366004610f0d565b6107dc565b3480156101bb57600080fd5b5061010c6101ca366004610fae565b610864565b3480156101db57600080fd5b506008546101ef906001600160401b031681565b6040516001600160401b039091168152602001610146565b34801561021357600080fd5b5061010c610222366004610e80565b610926565b34801561023357600080fd5b50610276610242366004610fae565b60096020526000908152604090208054600182015460028301546003909301546001600160a01b0390921692909160ff1684565b604080516001600160a01b03909516855260208501939093529183015215156060820152608001610146565b3480156102ae57600080fd5b506102b7610a3a565b6040519015158152602001610146565b3480156102d357600080fd5b506102dc610af6565b6040516101469190610fc7565b3480156102f557600080fd5b5061010c610bfd565b34801561030a57600080fd5b5061031460075481565b604051908152602001610146565b34801561032e57600080fd5b5061031461033d366004610fae565b610cd6565b600854600160401b90046001600160a01b0316331461036057600080fd5b60015460405163a9059cbb60e01b81526001600160a01b038381166004830152602482018590529091169063a9059cbb906044016020604051808303816000875af11580156103b3573d6000803e3d6000fd5b505050506040513d601f19601f820116820180604052508101906103d79190611036565b505050565b66b1a2bc2ec5000060008290036103fb575066b1a2bc2ec500006104aa565b81600103610412575067016345785d8a00006104aa565b8160020361042957506703782dace9d900006104aa565b8160030361044057506706f05b59d3b200006104aa565b816004036104575750670de0b6b3a76400006104aa565b8160050361046e5750671bc16d674ec800006104aa565b60405162461bcd60e51b815260206004820152600c60248201526b696e76616c6964206d6f646560a01b60448201526064015b60405180910390fd5b803410156104e75760405162461bcd60e51b815260206004820152600a602482015269131bddc8185b5bdd5b9d60b21b60448201526064016104a1565b60006006600b54815481106104fe576104fe611053565b90600052602060002001549050600084156105265761051e600283611069565b159050610536565b610531600283611069565b151590505b604080516080810182523381524260208201529081018390528115156060820152600a80546001919060009061056d9084906110a1565b9091555050600a54600090815260096020908152604091829020835181546001600160a01b0319166001600160a01b0390911617815590830151600182015590820151600282015560608201516003909101805460ff1916911515919091179055811561060d57336108fc6105e33460026110b9565b6040518115909202916000818181858888f1935050505015801561060b573d6000803e3d6000fd5b505b600b805490600061061d836110d8565b9091555050600554600b54660100000000000090910463ffffffff16900361064c576000600b5561064c610c1b565b505050505050565b6000805460085460405163523e3b4b60e11b81526001600160401b039091166004820152829182916060916001600160a01b03169063a47c769690602401600060405180830381865afa1580156106af573d6000803e3d6000fd5b505050506040513d6000823e601f3d908101601f191682016040526106d791908101906110f1565b935093509350935090919293565b600854600160401b90046001600160a01b0316331461070357600080fd5b600054600854604051639f87fad760e01b81526001600160401b0390911660048201526001600160a01b03838116602483015290911690639f87fad7906044015b600060405180830381600087803b15801561075e57600080fd5b505af1158015610772573d6000803e3d6000fd5b5050505050565b600854600160401b90046001600160a01b0316331461079757600080fd5b600054600854604051631cd0704360e21b81526001600160401b0390911660048201526001600160a01b03838116602483015290911690637341c10c90604401610744565b336001600160a01b037f000000000000000000000000000000000000000000000000000000000000000016146108565760405163073e64fd60e21b81523360048201526001600160a01b037f00000000000000000000000000000000000000000000000000000000000000001660248201526044016104a1565b6108608282610cf7565b5050565b600854600160401b90046001600160a01b0316331461088257600080fd5b600154600054600854604080516001600160401b0390921660208301526001600160a01b0393841693634000aea09316918591016040516020818303038152906040526040518463ffffffff1660e01b81526004016108e39392919061120e565b6020604051808303816000875af1158015610902573d6000803e3d6000fd5b505050506040513d601f19601f820116820180604052508101906108609190611036565b600854600160401b90046001600160a01b0316331461094457600080fd5b6008546001600160401b03166109b45760405162461bcd60e51b815260206004820152602f60248201527f4120737562736372697074696f6e20646f6573206e6f7420657869737420666f60448201526e1c881d1a1a5cc818dbdb9d1c9858dd608a1b60648201526084016104a1565b600054600854604051630d7ae1d360e41b81526001600160401b0390911660048201526001600160a01b0383811660248301529091169063d7ae1d3090604401600060405180830381600087803b158015610a0e57600080fd5b505af1158015610a22573d6000803e3d6000fd5b50506008805467ffffffffffffffff19169055505050565b600080546008546040516001600160401b03909116602482015282916001600160a01b03169060440160408051601f198184030181529181526020820180516001600160e01b0316633a0ab5f560e21b17905251610a989190611257565b600060405180830381855afa9150503d8060008114610ad3576040519150601f19603f3d011682016040523d82523d6000602084013e610ad8565b606091505b5091505080806020019051810190610af09190611036565b91505090565b60606000600a546001600160401b03811115610b1457610b14610ea4565b604051908082528060200260200182016040528015610b6657816020015b604080516080810182526000808252602080830182905292820181905260608201528252600019909201910181610b325790505b50905060005b600a54811015610bf757600081815260096020908152604091829020825160808101845281546001600160a01b0316815260018201549281019290925260028101549282019290925260039091015460ff16151560608201528251839083908110610bd957610bd9611053565b60200260200101819052508080610bef906110d8565b915050610b6c565b50919050565b600854600160401b90046001600160a01b03163314610c1b57600080fd5b600054600480546008546005546040516305d3b1d360e41b8152938401929092526001600160401b03166024830152640100000000810461ffff16604483015263ffffffff808216606484015266010000000000009091041660848201526001600160a01b0390911690635d3b1d309060a4016020604051808303816000875af1158015610cad573d6000803e3d6000fd5b505050506040513d601f19601f82011682018060405250810190610cd19190611273565b600755565b60068181548110610ce657600080fd5b600091825260209091200154905081565b80516006805482825560008290526103d7927ff652222313e28459528d920b65115c16c04f3efc82aaedc97be59f3f377c0d3f91820191602086018215610d5a579160200282015b82811115610d5a578251825591602001919060010190610d3f565b50610d66929150610d6a565b5090565b5b80821115610d665760008155600101610d6b565b6001600160a01b0381168114610d9457600080fd5b50565b60008060408385031215610daa57600080fd5b823591506020830135610dbc81610d7f565b809150509250929050565b8015158114610d9457600080fd5b60008060408385031215610de857600080fd5b8235610df381610dc7565b946020939093013593505050565b6000608082016bffffffffffffffffffffffff8716835260206001600160401b0387168185015260018060a01b0380871660408601526080606086015282865180855260a087019150838801945060005b81811015610e70578551841683529484019491840191600101610e52565b50909a9950505050505050505050565b600060208284031215610e9257600080fd5b8135610e9d81610d7f565b9392505050565b634e487b7160e01b600052604160045260246000fd5b604051601f8201601f191681016001600160401b0381118282101715610ee257610ee2610ea4565b604052919050565b60006001600160401b03821115610f0357610f03610ea4565b5060051b60200190565b60008060408385031215610f2057600080fd5b823591506020808401356001600160401b03811115610f3e57600080fd5b8401601f81018613610f4f57600080fd5b8035610f62610f5d82610eea565b610eba565b81815260059190911b82018301908381019088831115610f8157600080fd5b928401925b82841015610f9f57833582529284019290840190610f86565b80955050505050509250929050565b600060208284031215610fc057600080fd5b5035919050565b602080825282518282018190526000919060409081850190868401855b8281101561102957815180516001600160a01b031685528681015187860152858101518686015260609081015115159085015260809093019290850190600101610fe4565b5091979650505050505050565b60006020828403121561104857600080fd5b8151610e9d81610dc7565b634e487b7160e01b600052603260045260246000fd5b60008261108657634e487b7160e01b600052601260045260246000fd5b500690565b634e487b7160e01b600052601160045260246000fd5b600082198211156110b4576110b461108b565b500190565b60008160001904831182151516156110d3576110d361108b565b500290565b6000600182016110ea576110ea61108b565b5060010190565b6000806000806080858703121561110757600080fd5b84516bffffffffffffffffffffffff8116811461112357600080fd5b809450506020808601516001600160401b03808216821461114357600080fd5b604088015191955061115482610d7f565b60608801519194508082111561116957600080fd5b508601601f8101881361117b57600080fd5b8051611189610f5d82610eea565b81815260059190911b8201830190838101908a8311156111a857600080fd5b928401925b828410156111cf5783516111c081610d7f565b825292840192908401906111ad565b979a9699509497505050505050565b60005b838110156111f95781810151838201526020016111e1565b83811115611208576000848401525b50505050565b60018060a01b038416815282602082015260606040820152600082518060608401526112418160808501602087016111de565b601f01601f191691909101608001949350505050565b600082516112698184602087016111de565b9190910192915050565b60006020828403121561128557600080fd5b505191905056fea2646970667358221220217721c8d7bc934089815da44bf819de455890576a6866d2ff59b6cf59868de264736f6c634300080f0033",
    "sourcePath": "/home/persefone/dev/coinflipVRF/contracts/CoinFlip.sol",
    "compiler": {
        "name": "solc",
        "version": "0.8.15+commit.e14f2714"
    },
    "functionHashes": {
        "addConsumer(address)": "112940f9",
        "cancelSubscription(address)": "93d81d58",
        "flipCoin(bool,uint256)": "0c997597",
        "getLastFlips()": "b97229b9",
        "getSubscriptionDetails()": "0d5de6df",
        "initialRequestRandomWords()": "e1e8681f",
        "pendingRequestExists()": "a3ced7b9",
        "rawFulfillRandomWords(uint256,uint256[])": "1fe543e3",
        "removeConsumer(address)": "0e27e3df",
        "s_randomWords(uint256)": "f6eaffc8",
        "s_requestId()": "e89e106a",
        "s_subscriptionId()": "8ac00021",
        "topUpSubscription(uint256)": "86850e93",
        "usersFlips(uint256)": "a0f0a1e3",
        "withdraw(uint256,address)": "00f714ce"
    },
    "gasEstimates": {
        "creation": {
            "codeDepositCost": "960400",
            "executionCost": "infinite",
            "totalCost": "infinite"
        },
        "external": {
            "addConsumer(address)": "infinite",
            "cancelSubscription(address)": "infinite",
            "flipCoin(bool,uint256)": "infinite",
            "getLastFlips()": "infinite",
            "getSubscriptionDetails()": "infinite",
            "initialRequestRandomWords()": "infinite",
            "pendingRequestExists()": "infinite",
            "rawFulfillRandomWords(uint256,uint256[])": "infinite",
            "removeConsumer(address)": "infinite",
            "s_randomWords(uint256)": "4663",
            "s_requestId()": "2361",
            "s_subscriptionId()": "2360",
            "topUpSubscription(uint256)": "infinite",
            "usersFlips(uint256)": "8961",
            "withdraw(uint256,address)": "infinite"
        },
        "internal": {
            "createNewSubscription()": "infinite",
            "fulfillRandomWords(uint256,uint256[] memory)": "infinite",
            "getLinkBalance(address)": "infinite",
            "requestRandomWords()": "infinite"
        }
    }
}