{
  "_format": "hh-sol-artifact-1",
  "contractName": "TykheLuckyOracle",
  "sourceName": "contracts/TykheLuckyOracle.sol",
  "abi": [
    {
      "inputs": [],
      "stateMutability": "nonpayable",
      "type": "constructor"
    },
    {
      "inputs": [
        {
          "internalType": "address",
          "name": "have",
          "type": "address"
        },
        {
          "internalType": "address",
          "name": "want",
          "type": "address"
        }
      ],
      "name": "OnlyCoordinatorCanFulfill",
      "type": "error"
    },
    {
      "inputs": [
        {
          "internalType": "address",
          "name": "consumerAddress",
          "type": "address"
        }
      ],
      "name": "addConsumer",
      "outputs": [],
      "stateMutability": "nonpayable",
      "type": "function"
    },
    {
      "inputs": [],
      "name": "askOracle",
      "outputs": [
        {
          "internalType": "uint256[]",
          "name": "",
          "type": "uint256[]"
        }
      ],
      "stateMutability": "view",
      "type": "function"
    },
    {
      "inputs": [
        {
          "internalType": "address",
          "name": "receivingWallet",
          "type": "address"
        }
      ],
      "name": "cancelSubscription",
      "outputs": [],
      "stateMutability": "nonpayable",
      "type": "function"
    },
    {
      "inputs": [],
      "name": "createNewSubscription",
      "outputs": [],
      "stateMutability": "nonpayable",
      "type": "function"
    },
    {
      "inputs": [
        {
          "internalType": "uint256",
          "name": "amount",
          "type": "uint256"
        }
      ],
      "name": "fundAndRequestRandomWords",
      "outputs": [],
      "stateMutability": "nonpayable",
      "type": "function"
    },
    {
      "inputs": [],
      "name": "getLinkBalance",
      "outputs": [
        {
          "internalType": "uint256",
          "name": "balance",
          "type": "uint256"
        }
      ],
      "stateMutability": "view",
      "type": "function"
    },
    {
      "inputs": [],
      "name": "getSubscriptionDetails",
      "outputs": [
        {
          "internalType": "uint96",
          "name": "balance",
          "type": "uint96"
        },
        {
          "internalType": "uint64",
          "name": "reqCount",
          "type": "uint64"
        },
        {
          "internalType": "address",
          "name": "owner",
          "type": "address"
        },
        {
          "internalType": "address[]",
          "name": "consumers",
          "type": "address[]"
        }
      ],
      "stateMutability": "view",
      "type": "function"
    },
    {
      "inputs": [],
      "name": "pendingRequestExists",
      "outputs": [
        {
          "internalType": "bool",
          "name": "",
          "type": "bool"
        }
      ],
      "stateMutability": "view",
      "type": "function"
    },
    {
      "inputs": [
        {
          "internalType": "uint256",
          "name": "requestId",
          "type": "uint256"
        },
        {
          "internalType": "uint256[]",
          "name": "randomWords",
          "type": "uint256[]"
        }
      ],
      "name": "rawFulfillRandomWords",
      "outputs": [],
      "stateMutability": "nonpayable",
      "type": "function"
    },
    {
      "inputs": [
        {
          "internalType": "address",
          "name": "consumerAddress",
          "type": "address"
        }
      ],
      "name": "removeConsumer",
      "outputs": [],
      "stateMutability": "nonpayable",
      "type": "function"
    },
    {
      "inputs": [],
      "name": "requestRandomWords",
      "outputs": [],
      "stateMutability": "nonpayable",
      "type": "function"
    },
    {
      "inputs": [
        {
          "internalType": "uint256",
          "name": "",
          "type": "uint256"
        }
      ],
      "name": "s_randomWords",
      "outputs": [
        {
          "internalType": "uint256",
          "name": "",
          "type": "uint256"
        }
      ],
      "stateMutability": "view",
      "type": "function"
    },
    {
      "inputs": [],
      "name": "s_requestId",
      "outputs": [
        {
          "internalType": "uint256",
          "name": "",
          "type": "uint256"
        }
      ],
      "stateMutability": "view",
      "type": "function"
    },
    {
      "inputs": [],
      "name": "s_subscriptionId",
      "outputs": [
        {
          "internalType": "uint64",
          "name": "",
          "type": "uint64"
        }
      ],
      "stateMutability": "view",
      "type": "function"
    },
    {
      "inputs": [
        {
          "internalType": "uint256",
          "name": "amount",
          "type": "uint256"
        }
      ],
      "name": "topUpSubscription",
      "outputs": [],
      "stateMutability": "nonpayable",
      "type": "function"
    },
    {
      "inputs": [
        {
          "internalType": "uint256",
          "name": "amount",
          "type": "uint256"
        },
        {
          "internalType": "address",
          "name": "to",
          "type": "address"
        }
      ],
      "name": "withdraw",
      "outputs": [],
      "stateMutability": "nonpayable",
      "type": "function"
    }
  ],
  "bytecode": "0x60a0604052600280546001600160a01b0319908116736a2aad07396b36fe02a22b33cf443582f682c82f17909155600380549091167384b9b910527ad5c03a9ca831909e21e236ea7b061790557fd4bb89654db74673a187bd804519e65e3f71a52bc55f11da7601a13dcf5053146004556005805466020001000186a06001600160501b03199091161790553480156200009857600080fd5b506002546001600160a01b039081166080819052600080546001600160a01b031990811690921790556003546001805491909316911617905560088054600160401b600160e01b031916336801000000000000000002179055620000fb62000101565b62000363565b6008546801000000000000000090046001600160a01b031633146200012557600080fd5b6008546001600160401b031615620001835760405162461bcd60e51b815260206004820152601c60248201527f4120737562736372697074696f6e20616c726561647920657869737400000000604482015260640160405180910390fd5b604080516001808252818301909252600091602080830190803683370190505090503081600081518110620001bc57620001bc6200031b565b60200260200101906001600160a01b031690816001600160a01b03168152505060008054906101000a90046001600160a01b03166001600160a01b031663a21a23e46040518163ffffffff1660e01b81526004016020604051808303816000875af115801562000230573d6000803e3d6000fd5b505050506040513d601f19601f8201168201806040525081019062000256919062000331565b600880546001600160401b0319166001600160401b039290921691821790556000805483516001600160a01b0390911692637341c10c929091859190620002a157620002a16200031b565b60200260200101516040518363ffffffff1660e01b8152600401620002e49291906001600160401b039290921682526001600160a01b0316602082015260400190565b600060405180830381600087803b158015620002ff57600080fd5b505af115801562000314573d6000803e3d6000fd5b5050505050565b634e487b7160e01b600052603260045260246000fd5b6000602082840312156200034457600080fd5b81516001600160401b03811681146200035c57600080fd5b9392505050565b60805161119a62000386600039600081816104370152610479015261119a6000f3fe608060405234801561001057600080fd5b50600436106100cf5760003560e01c8062f714ce146100d45780630d5de6df146100e95780630e27e3df1461010a578063112940f91461011d5780631fe543e31461013057806350c5f975146101435780636d0c4e29146101595780636fd700bb1461016157806386850e93146101745780638ac000211461018757806393d81d58146101a7578063a3ced7b9146101ba578063e0c86289146101d2578063e89e106a146101da578063ed6f0792146101e3578063f6eaffc8146101f8575b600080fd5b6100e76100e2366004610cc3565b61020b565b005b6100f16102a5565b6040516101019493929190610cf3565b60405180910390f35b6100e7610118366004610d71565b61033d565b6100e761012b366004610d71565b6103cf565b6100e761013e366004610dfe565b61042c565b61014b6104b9565b604051908152602001610101565b6100e761052b565b6100e761016f366004610e9f565b6106db565b6100e7610182366004610e9f565b61084b565b60085461019a906001600160401b031681565b6040516101019190610eb8565b6100e76101b5366004610d71565b610911565b6101c2610a23565b6040519015158152602001610101565b6100e7610ae4565b61014b60075481565b6101eb610baa565b6040516101019190610ecc565b61014b610206366004610e9f565b610c02565b600854600160401b90046001600160a01b0316331461022957600080fd5b60015460405163a9059cbb60e01b81526001600160a01b038381166004830152602482018590529091169063a9059cbb906044016020604051808303816000875af115801561027c573d6000803e3d6000fd5b505050506040513d601f19601f820116820180604052508101906102a09190610f10565b505050565b6000805460085460405163523e3b4b60e11b8152839283926060926001600160a01b039092169163a47c7696916102ea916001600160401b0390911690600401610eb8565b600060405180830381865afa158015610307573d6000803e3d6000fd5b505050506040513d6000823e601f3d908101601f1916820160405261032f9190810190610f4e565b935093509350935090919293565b600854600160401b90046001600160a01b0316331461035b57600080fd5b600054600854604051639f87fad760e01b81526001600160a01b0390921691639f87fad79161039a916001600160401b0390911690859060040161102a565b600060405180830381600087803b1580156103b457600080fd5b505af11580156103c8573d6000803e3d6000fd5b5050505050565b600854600160401b90046001600160a01b031633146103ed57600080fd5b600054600854604051631cd0704360e21b81526001600160a01b0390921691637341c10c9161039a916001600160401b0390911690859060040161102a565b336001600160a01b037f000000000000000000000000000000000000000000000000000000000000000016146104ab5760405163073e64fd60e21b81523360048201526001600160a01b037f00000000000000000000000000000000000000000000000000000000000000001660248201526044015b60405180910390fd5b6104b58282610c23565b5050565b6001546040516370a0823160e01b81523060048201526000916001600160a01b0316906370a0823190602401602060405180830381865afa158015610502573d6000803e3d6000fd5b505050506040513d601f19601f82011682018060405250810190610526919061104c565b905090565b600854600160401b90046001600160a01b0316331461054957600080fd5b6008546001600160401b0316156105a15760405162461bcd60e51b815260206004820152601c60248201527b10481cdd589cd8dc9a5c1d1a5bdb88185b1c9958591e48195e1a5cdd60221b60448201526064016104a2565b6040805160018082528183019092526000916020808301908036833701905050905030816000815181106105d7576105d7611065565b60200260200101906001600160a01b031690816001600160a01b03168152505060008054906101000a90046001600160a01b03166001600160a01b031663a21a23e46040518163ffffffff1660e01b81526004016020604051808303816000875af115801561064a573d6000803e3d6000fd5b505050506040513d601f19601f8201168201806040525081019061066e919061107b565b600880546001600160401b0319166001600160401b039290921691821790556000805483516001600160a01b0390911692637341c10c9290918591906106b6576106b6611065565b60200260200101516040518363ffffffff1660e01b815260040161039a92919061102a565b600854600160401b90046001600160a01b031633146106f957600080fd5b6001546000546008546040516001600160a01b0393841693634000aea09316918591610731916001600160401b031690602001610eb8565b6040516020818303038152906040526040518463ffffffff1660e01b815260040161075e939291906110c6565b6020604051808303816000875af115801561077d573d6000803e3d6000fd5b505050506040513d601f19601f820116820180604052508101906107a19190610f10565b50600054600480546008546005546040516305d3b1d360e41b81526001600160a01b0390951694635d3b1d309461080294936001600160401b03169261ffff600160201b8204169263ffffffff80831693600160301b90930416910161110f565b6020604051808303816000875af1158015610821573d6000803e3d6000fd5b505050506040513d601f19601f82011682018060405250810190610845919061104c565b60075550565b600854600160401b90046001600160a01b0316331461086957600080fd5b6001546000546008546040516001600160a01b0393841693634000aea093169185916108a1916001600160401b031690602001610eb8565b6040516020818303038152906040526040518463ffffffff1660e01b81526004016108ce939291906110c6565b6020604051808303816000875af11580156108ed573d6000803e3d6000fd5b505050506040513d601f19601f820116820180604052508101906104b59190610f10565b600854600160401b90046001600160a01b0316331461092f57600080fd5b6008546001600160401b031661099f5760405162461bcd60e51b815260206004820152602f60248201527f4120737562736372697074696f6e20646f6573206e6f7420657869737420666f60448201526e1c881d1a1a5cc818dbdb9d1c9858dd608a1b60648201526084016104a2565b600054600854604051630d7ae1d360e41b81526001600160a01b039092169163d7ae1d30916109de916001600160401b0390911690859060040161102a565b600060405180830381600087803b1580156109f857600080fd5b505af1158015610a0c573d6000803e3d6000fd5b5050600880546001600160401b0319169055505050565b6000805460085460405183926001600160a01b031691610a51916001600160401b0390911690602401610eb8565b60408051601f198184030181529181526020820180516001600160e01b0316633a0ab5f560e21b17905251610a869190611148565b600060405180830381855afa9150503d8060008114610ac1576040519150601f19603f3d011682016040523d82523d6000602084013e610ac6565b606091505b5091505080806020019051810190610ade9190610f10565b91505090565b600854600160401b90046001600160a01b03163314610b0257600080fd5b600054600480546008546005546040516305d3b1d360e41b81526001600160a01b0390951694635d3b1d3094610b6294936001600160401b03169261ffff600160201b8204169263ffffffff80831693600160301b90930416910161110f565b6020604051808303816000875af1158015610b81573d6000803e3d6000fd5b505050506040513d601f19601f82011682018060405250810190610ba5919061104c565b600755565b60606006805480602002602001604051908101604052809291908181526020018280548015610bf857602002820191906000526020600020905b815481526020019060010190808311610be4575b5050505050905090565b60068181548110610c1257600080fd5b600091825260209091200154905081565b80516006805482825560008290526102a0927ff652222313e28459528d920b65115c16c04f3efc82aaedc97be59f3f377c0d3f91820191602086018215610c86579160200282015b82811115610c86578251825591602001919060010190610c6b565b50610c92929150610c96565b5090565b5b80821115610c925760008155600101610c97565b6001600160a01b0381168114610cc057600080fd5b50565b60008060408385031215610cd657600080fd5b823591506020830135610ce881610cab565b809150509250929050565b6001600160601b03851681526001600160401b0384166020808301919091526001600160a01b038481166040840152608060608401819052845190840181905260009285810192909160a0860190855b81811015610d61578551841683529484019491840191600101610d43565b50909a9950505050505050505050565b600060208284031215610d8357600080fd5b8135610d8e81610cab565b9392505050565b634e487b7160e01b600052604160045260246000fd5b604051601f8201601f191681016001600160401b0381118282101715610dd357610dd3610d95565b604052919050565b60006001600160401b03821115610df457610df4610d95565b5060051b60200190565b60008060408385031215610e1157600080fd5b823591506020808401356001600160401b03811115610e2f57600080fd5b8401601f81018613610e4057600080fd5b8035610e53610e4e82610ddb565b610dab565b81815260059190911b82018301908381019088831115610e7257600080fd5b928401925b82841015610e9057833582529284019290840190610e77565b80955050505050509250929050565b600060208284031215610eb157600080fd5b5035919050565b6001600160401b0391909116815260200190565b6020808252825182820181905260009190848201906040850190845b81811015610f0457835183529284019291840191600101610ee8565b50909695505050505050565b600060208284031215610f2257600080fd5b81518015158114610d8e57600080fd5b80516001600160401b0381168114610f4957600080fd5b919050565b60008060008060808587031215610f6457600080fd5b84516001600160601b0381168114610f7b57600080fd5b93506020610f8a868201610f32565b93506040860151610f9a81610cab565b60608701519093506001600160401b03811115610fb657600080fd5b8601601f81018813610fc757600080fd5b8051610fd5610e4e82610ddb565b81815260059190911b8201830190838101908a831115610ff457600080fd5b928401925b8284101561101b57835161100c81610cab565b82529284019290840190610ff9565b979a9699509497505050505050565b6001600160401b039290921682526001600160a01b0316602082015260400190565b60006020828403121561105e57600080fd5b5051919050565b634e487b7160e01b600052603260045260246000fd5b60006020828403121561108d57600080fd5b610d8e82610f32565b60005b838110156110b1578181015183820152602001611099565b838111156110c0576000848401525b50505050565b60018060a01b038416815282602082015260606040820152600082518060608401526110f9816080850160208701611096565b601f01601f191691909101608001949350505050565b9485526001600160401b0393909316602085015261ffff91909116604084015263ffffffff908116606084015216608082015260a00190565b6000825161115a818460208701611096565b919091019291505056fea2646970667358221220cdb87a4121323b85291ec271e75915bb8e60f601968d6f0ec366cc924101c89764736f6c634300080f0033",
  "linkReferences": {},
  "deployedLinkReferences": {}
}